:020000040800F2
:10000000FF3F002069710008394400083B440008A4
:100010003D4400083F44000841440008000000003F
:10002000000000000000000000000000C1610008A6
:1000300043440008000000002162000885620008B7
:10004000AD710008AD710008AD710008AD71000818
:10005000AD710008F1440008AD710008AD710008F1
:1000600000000000AD710008AD71000805450008F2
:10007000AD710008AD710008AD710008B144000811
:1000800091440008AD710008D1440008AD7100082A
:10009000AD710008AD710008AD710008AD710008C8
:1000A000AD710008454400085944000800000000F4
:1000B0000000000000000000AD710008000000001A
:0400C000AD71000816
:1000D0000348044B834202D0034B03B118477047D7
:1000E0007402002074020020000000000548064948
:1000F0000B1AD90F01EBA301491002D0034B03B136
:1001000018477047740200207402002000000000AD
:1001100010B5064C237843B9FFF7DAFF044B13B14F
:100120000448AFF300800123237010BD7402002047
:1001300000000000B071000808B5044B1BB1044971
:100140000448AFF30080BDE80840CFE7000000009E
:1001500078020020B0710008024B0146186800F0D8
:1001600059B900BF00000020024B0146186800F09A
:10017000EFB800BF00000020844641EA000313F0FE
:1001800003036DD1403A41D351F8043B40F8043B9E
:1001900051F8043B40F8043B51F8043B40F8043B61
:1001A00051F8043B40F8043B51F8043B40F8043B51
:1001B00051F8043B40F8043B51F8043B40F8043B41
:1001C00051F8043B40F8043B51F8043B40F8043B31
:1001D00051F8043B40F8043B51F8043B40F8043B21
:1001E00051F8043B40F8043B51F8043B40F8043B11
:1001F00051F8043B40F8043B51F8043B40F8043B01
:1002000051F8043B40F8043B403ABDD2303211D3A0
:1002100051F8043B40F8043B51F8043B40F8043BE0
:1002200051F8043B40F8043B51F8043B40F8043BD0
:10023000103AEDD20C3205D351F8043B40F8043BA0
:10024000043AF9D2043208D0D2071CBF11F8013B9E
:1002500000F8013B01D30B8803806046704700BF64
:10026000082A13D38B078DD010F003038AD0C3F173
:100270000403D21ADB071CBF11F8013B00F8013B55
:1002800080D331F8023B20F8023B7BE7043AD9D314
:10029000013A11F8013B00F8013BF9D20B780370E9
:1002A0004B7843708B78837060467047830730B516
:1002B00048D0541E002A3FD0CAB2034601E0013C98
:1002C0003AD303F8012B9D07F9D1032C2DD9CDB2D8
:1002D00045EA05250F2C45EA054536D9A4F110025B
:1002E00022F00F0C03F1200EE6444FEA121C03F13A
:1002F000100242E9045542E9025510327245F8D124
:100300000CF1010214F00C0F03EB021204F00F0CBD
:1003100013D0ACF1040323F003030433134442F875
:10032000045B9342FBD10CF003042CB1CAB21C4411
:1003300003F8012B9C42FBD130BD64461346002CD0
:10034000F4D1F9E703461446BFE71A46A446E0E7AE
:10035000002958D030B551F8043C83B0002BA1F1EE
:100360000404B8BFE418019000F050FA284A01983C
:10037000136833B1A3420DD9216804EB010C634526
:100380002FD06360146003B0BDE8304000F040BA85
:10039000A34210D81A465B68002BF9D1116802EB12
:1003A000010C644519D02FD36360546003B0BDE8DD
:1003B000304000F02DBA116802EB010CA44516D0B4
:1003C00022D8216804EB010C6345EDD11D685B6800
:1003D0002944C4E900135460D5E723681944116027
:1003E000D1E71D685B682944C4E90013CAE72468A3
:1003F00021445418A3421160C5D1D3E900432144DC
:10040000C2E90013BFE770470C230360BBE700BFDE
:1004100090020020F8B5CD1C25F0030508350C2D01
:1004200038BF0C25002D064623DBA94221D8254FD5
:1004300000F0ECF93A6822B3144603E06368224600
:10044000FBB11C4623685B1BF8D40B2B15D86368E3
:1004500094420CBF3B605360304600F0D9F904F180
:100460000B00231D20F00700C21A01D01B1AA35055
:10047000F8BD0C2333600020F8BD23601C442560C8
:10048000EAE77968C9B12946304600F04DF8431CC7
:100490000CD0C41C24F00304A04205D0211A30461D
:1004A00000F042F8013001D02560D5E70C2330463A
:1004B000336000F0ADF90020F8BD304600F034F8AC
:1004C0007860E0E7900200200EB410B5044683B0D7
:1004D00008B183695BB106ABA168059A0193204618
:1004E00000F0DCF903B0BDE8104003B0704700F045
:1004F00029F9F0E70FB410B50A4B1C6882B00CB1B3
:10050000A3695BB105ABA168049A0193204600F092
:10051000C5F902B0BDE8104004B07047204600F0B5
:1005200011F9EFE70000002038B5074D002204461E
:1005300008462A6002F000FA431C00D038BD2B6840
:10054000002BFBD0236038BD9802002000207047AC
:10055000014900F037B900BFD912000800207047E8
:1005600070B568224D1E02FB05F50E4605F17401BB
:10057000FFF750FF044640B100210C30C4E90016DB
:10058000A06005F16802FFF791FE204670BD00BF34
:10059000274B2DE9F0411E68B369074653B348362F
:1005A0004FF00408D6E90134013B04D51EE05A1C83
:1005B00004F168041AD0B4F90C50013B002DF6D1B7
:1005C0001C4B6566C4E90055C4E90253C4E90455EF
:1005D000A5610822294604F15C00FFF767FEC4E923
:1005E0000D55C4E912552046BDE8F08135682DB19E
:1005F0002E46D7E7304600F01FF8D0E74FF4D6710B
:100600003846FFF707FF044668B10560C0F804806C
:100610000C302946A06025464FF4D072FFF746FE05
:1006200034602E46BEE70C2330603B60DBE700BF42
:10063000CC7100080100FFFF2DE9F84F344B35491C
:100640001A68816290424FF00003C0E912330365DB
:1006500004BF012383610546FFF79AFF68602846BF
:10066000FFF796FFA8602846FFF792FF6F68E860E3
:1006700000240423C7E9024308222146C7E90044B5
:10068000C7E904447C66BC6107F15C00FFF70EFE1D
:10069000DFF88CB0AE68DFF88CA0DFF88C90DFF864
:1006A0008C801D4BC7F828A0C7E9087BC7F82C90A1
:1006B000C7F830800822F360C6E90044C6E9044464
:1006C0007466B460B461214606F15C00FFF7EEFD8C
:1006D000C6E9086BC6E90AA9C6F83080EE680F4B78
:1006E000F360C6E90044C6E904447466B460B461CA
:1006F0002146082206F15C00FFF7D8FD0123C6E978
:10070000086BC6E90B98C6F828A0AB61BDE8F88F66
:10071000CC71000851050008090001001200020018
:10072000190F0008410F0008810F0008A10F0008F1
:10073000024B0349186800F045B800BFCC710008AF
:10074000D9120008836903B976E77047704700BF84
:10075000704700BF704700BF704700BF024B03499E
:10076000186800F00FB800BF000000204D05000819
:10077000024B0349186800F005B800BF00000020D4
:100780005D0500082DE9F041884600F14807002684
:10079000D7E90154013D0FD4A389012B05F1FF35A1
:1007A00006D9B4F90E300133204601D0C0470643C4
:1007B0006B1C04F16804EFD13F68002FE8D130468C
:1007C000BDE8F0812DE9F8430746884600F1480668
:1007D0004FF00009D6E90154013D11D4A389012B42
:1007E00005F1FF3508D9B4F90E300133214603D0A5
:1007F0003846C04749EA00096B1C04F16804EDD192
:100800003668002EE6D14846BDE8F883704700BF41
:10081000704700BF9368013B002B936011DA10B45E
:100820009469A34209DB0A2907D01368581C106099
:10083000197008465DF8044B70475DF8044B00F0F2
:10084000B3BB1368581C106019700846704700BF8E
:100850009BB1F8B5134406460F46541E5D1E01E0D9
:10086000AC4208D014F8011F3A463046FFF7D2FFD9
:10087000431CF5D1F8BD0020F8BD0020704700BF33
:10088000936810B5144613B95360184610BD00F0B4
:100890008DFD0023C4E9013310BD00BF2DE9F04FE9
:1008A00088469FB015461C46814618B18369002BC7
:1008B00000F0A280924B984500F0A480914B98459F
:1008C00000F0B180904B984508BFD9F80C80B8F87B
:1008D0000C30180740F19D80D8F81030002B00F044
:1008E000988000230B932978884E059420238DF857
:1008F000313030238DF832300127002974D02C4656
:100900000B4604E014F8013F002B00F08F80252BEC
:10091000F8D1B4EB050B40F08C802378002B63D02A
:1009200000234FF0FF32CDE90723069309938DF89A
:100930005B301C93013404E0069A07FA03F3134377
:1009400006932546052214F8011B304600F050FF9F
:10095000831B0028F0D1069BD90644BF20228DF8C6
:100960005B2029781A0744BF2B228DF85B202A29A7
:1009700070D1059A1168043200290592C0F29B805B
:100980000991697801352E2976D0614C03222046E1
:1009900000F02EFF38B1069B001B402404FA00F043
:1009A00003430693013515F8011B5A488DF83010A2
:1009B000062200F01DFF002800F08380564B002B1C
:1009C0006DD005AA0092554B424606A94846AFF3A2
:1009D00000800390039B013306D00B9B039A297878
:1009E00013440B9300298AD1B8F80C305B0617D456
:1009F0000B981FB0BDE8F08FFFF7A4FE404B984561
:100A00007FF45CAFD9F80480B8F80C3018073FF5D4
:100A100063AF4146484600F041FB00283FF461AF18
:100A20004FF0FF30E5E7D9F8088050E7B4EB050B4D
:100A3000DAD0AA46C5F1010503E0934536D91AF884
:100A4000011F42464846FFF7E5FE013005EB0A026A
:100A5000F3D1C9E7A1F13002092A94D8099B15F80E
:100A6000011F03EB830302EB4303A1F13002092AC8
:100A7000F5D92E29099388D169782A292BD1059B8C
:100A8000A9781A6807920433002A05F10200059339
:100A9000B8BF4FF0FF330546B8BF079375E7059B16
:100AA000073323F007030833059396E70B9A23785F
:100AB0005A440B9232E7494243F0020309910693EC
:100AC0005FE705AA0092154B424606A9484600F08A
:100AD000CBF803907EE7A1F130020023092A0793A7
:100AE00005F101053FF651AF15F8011F03EB830334
:100AF00002EB4303A1F13002092AF5D9079344E739
:100B000010720008F0710008D071000874730008BA
:100B10007C73000880730008000000005108000882
:100B200010B4054C8446134620685DF8044B0A4611
:100B30006146FFF7B3BE00BF000000202DE9F84F6B
:100B400092461F460A698B68DDF828909A42B8BF22
:100B50001A46CAF8002091F843300C46064613B1F5
:100B60000132CAF80020226891065DD5DAF800301B
:100B70000233CAF80030226812F0060F11461ED167
:100B8000E168CB1A002BD8BF114618DD04F1190B10
:100B90004FF0000805E0E568DAF80030ED1A454549
:100BA0000CDD01235A4639463046C847013008F16A
:100BB0000108F0D14FF0FF30BDE8F88F216894F8BC
:100BC0004330003B18BF01238A060AD5E1185A1C9E
:100BD000302081F84300224494F8451082F84310F5
:100BE000023304F1430239463046C8470130E1D0B0
:100BF000236803F00603042B1DD0A36822699342E7
:100C000025DD4FF000089B1A98441A34002501E0B6
:100C100045451CDA0123224639463046C847013093
:100C200005F10105F4D1C5E712F0060F12D0003B23
:100C300018BF0123D5E7DAF80030E1682269C91A44
:100C4000A368934221EAE178DDDC0029DDDC0020A5
:100C5000BDE8F88FE168DAF80030CB1A002BD8BF76
:100C6000114693DCABE700BF2DE9F0470C4684B09A
:100C70009046227E0C990746994604F14300002ACB
:100C800033D0A2F15803DDB2202D67D8202B65D8D0
:100C9000DFE813F0DE0064006400640064006400B8
:100CA00064006400640064006400A3006E006400DB
:100CB0006400640064006E0064006400640064000A
:100CC00021007F00C00064006400AE0064007F006B
:100CD00064006400E50023681A0640F104810B6893
:100CE00062691D1D0D601B681A6000238246236126
:100CF000CDF80090434603AA21463846FFF71EFF71
:100D0000013020D02369524641463846C847013059
:100D100019D02368E068039E9B0719D5831B002B1D
:100D200016DD04F1190A002504E0E068039E831B28
:100D3000AB420DDD0123524641463846C8470130DB
:100D400005F10105F1D14FF0FF3004B0BDE8F087A7
:100D5000B042B8BF304604B0BDE8F087012384F844
:100D60004220236104F1420A002384F84330BFE7A4
:100D700023681A0602D45E0600F1C1800D682A6855
:100D800004350D601546002A6BDBDFF884C10A26A6
:100D900010E023681D0640F19C800B681D1D0D604E
:100DA0001D68DFF86CC16F2A0CBF08260A260023D5
:100DB00084F843306268A260002A7FDB236823F056
:100DC00004032360002D5BD1002A79D18246082ECE
:100DD00065D0A0EB0A0020618AE70B680122186841
:100DE00004330B6004F1420A84F842002261BBE73D
:100DF0000B686268181D0860D3F800A000215046F7
:100E000000F0F6FC002800F08180A0EB0A00606092
:100E10002061A9E7236843F0200323607822DFF8EC
:100E2000F4C084F845200A68151D0D601D0643D4E2
:100E3000590641D51588DE0744BF43F020032360DF
:100E4000002D44D1236823F0200323601026AEE751
:100E5000582384F84530DFF8B8C02368E3E72368F7
:100E6000DCE76268A2602D21002AC5F1000584F844
:100E7000431002DB23F004032360DFF894C00A264A
:100E80008246B5FBF6F306FB13512A461CF8011007
:100E90000AF8011DB2421D46F3D2082E99D12368EB
:100EA000D90796D5626823699A4292DC30230AF802
:100EB000013C0AF1FF3A8CE71568BCE7002DDFD151
:100EC0009CF8003084F8423004F1420A7FE7102693
:100ED0006DE713F0400F0B6803F104050D600CBFC4
:100EE0001D681D885DE713F0400F0B68626903F110
:100EF00004050D601B6814BF1A801A60F5E60A68C5
:100F0000B2F9005004320A602A463CE760687FE785
:100F1000887300089C73000810B50C46B1F90E10D8
:100F200000F05AFD002803DB636D0344636510BDC8
:100F3000A38923F48053A38110BD00BF0020704714
:100F40002DE9F0410C46B1F90C101F46CB050546C2
:100F500016460BD421F48051A1813B46B4F90E1002
:100F600032462846BDE8F04100F082B8B4F90E10D0
:100F70000223002200F092FBB4F90C10EAE700BF54
:100F800010B50C46B1F90E1000F088FBA389421C85
:100F90000EBF23F4805343F480536065A38110BDDA
:100FA000B1F90E1000F0FCB8F8B50D46144606462F
:100FB00008B1836943B3254B9C422AD0244B9C4201
:100FC00029D0244B9C4208BFF468A389A269A2607F
:100FD0001A0722D5236903B322686169D31AEDB2D7
:100FE00099422F4629DD0133A1680139A160511CC6
:100FF0002160157062699A4216D0A389DB0701D57A
:101000000A2D11D03846F8BDFFF79CFB0F4B9C42D0
:10101000D4D17468D9E7B468D7E72146304600F0E8
:101020003DF838B92369D7E72146304600F054F936
:101030000028E7D04FF0FF37E4E72146304600F0C4
:101040004BF90028F6D122680123CDE71072000881
:10105000F0710008D071000810B4044C03460A4631
:1010600020685DF8044B1946FFF79EBF0000002082
:1010700038B50C46084D8446114620461A460023D2
:101080002B60644601F066FC431C00D038BD2B6821
:10109000002BFBD0236038BD980200203C4B70B57C
:1010A0001D6806460C460DB1AB69E3B1394B9C4255
:1010B0001FD0394B9C424DD0384B9C4208BFEC6846
:1010C000B4F90C3018079AB219D5216911B312F08E
:1010D00001002FD00020A06060694042A06100297B
:1010E0002ED0002070BD2846FFF72CFB294B9C42D8
:1010F000DFD16C68B4F90C3018079AB2E5D4D10688
:101100003ED5520728D4216943F00803A3819AB23F
:101110000029DCD102F42070B0F5007FD7D0214641
:10112000304600F0D1FAB4F90C3021699AB212F0CD
:101130000100CFD1950758BF6069A0600029D0D1C8
:10114000120658BF0846CDD543F04003A3814FF0A7
:10115000FF3070BDAC68B3E7616B51B104F144027C
:10116000914204D03046FFF7F3F8B4F90C30002276
:10117000626321690022C4E9001223F02403C3E75B
:10118000092243F0400332604FF0FF30A38170BD6D
:101190000000002010720008F0710008D0710008F3
:1011A00038B5074D0022044608462A6001F09CFB32
:1011B000431C00D038BD2B68002BFBD0236038BD0A
:1011C000980200208B891A072DE9F0410C468046D1
:1011D0003FD44A68002A58DDE66A002E52D0002229
:1011E000D8F80050C8F8002013F4805251D10123E0
:1011F000216A4046B047431C5ED0A389E66A5F0778
:1012000005D56368C01A636B0BB1236CC01A216AE1
:10121000024600234046B047411C3CD1D8F800307C
:10122000002B38D01D2B01D0162B4DD12369002265
:10123000C4E90032616BC8F8005019B304F14403EB
:10124000994202D04046FFF783F800206063BDE872
:10125000F0810E69B6B10D680E609A070CBF4B693C
:101260000023AD1B8B600BE02B463246216AA76A38
:101270004046B847B0F1000CA5EB0C05664413DD01
:10128000002DF1DC0020BDE8F0810A6C002AA3DC0F
:10129000F8E7606DB3E70023636023692360A389E7
:1012A000DB04C7D56065C5E7A38943F040034FF071
:1012B000FF30A381BDE8F081D8F80030002B9CD02E
:1012C0001D2B06D0162B04D0A38943F04003A38125
:1012D000D9E7C8F80050D5E738B50B69BBB10D4662
:1012E000044608B18369B3B10D4B9D4211D00D4B3B
:1012F0009D4213D00C4B9D4208BFE568B5F90C30F8
:101300002BB129462046BDE83840FFF75BBF0020DF
:1013100038BD6568F2E7FFF715FAE5E7A568EDE780
:1013200010720008F0710008D071000838B540B3A1
:1013300003690446E3B1174B1D680DB1AB69CBB12E
:10134000154B9C420FD0154B9C4221D0144B9C4214
:1013500008BFEC68B4F90C3053B121462846BDE80B
:101360003840FFF72FBF6C68B4F90C30002BF4D174
:10137000002038BD2846FFF7E5F9074B9C42E2D133
:10138000F1E7084B08491868BDE83840FFF71ABA7A
:10139000AC68DFE70000002010720008F071000860
:1013A000D0710008CC710008D91200089368002B96
:1013B00000F085802DE9F04FB1F90C300C4619078B
:1013C000804683B0174698B225D523691BB310F029
:1013D00002033D682DD04FF0000ADFF8BCB256463C
:1013E000B9465E453346524628BF5B464046002E0E
:1013F00052D0216AA76AB847002856DDD9F80830CC
:101400001B1A8244361AC9F80830002BE9D1002093
:1014100003B0BDE8F08F21464046FFF73FFE0028AD
:1014200040F03681B4F90C303D6898B210F00203F8
:10143000D1D110F0010944D14E46009746B3820540
:10144000D4F808B040F18380B3455A4600F2B28028
:1014500010F4906F40F0BF8020680192494600F080
:1014600017FAA368019AA3EB0B012368A160134448
:10147000B24623600026009B9868A0EB0A00D14486
:1014800098600028C3D0B4F90C0080B2002ED6D1E9
:10149000D5E900960835D1E7D5E900A60835A0E7DB
:1014A00021464046FFF718FF80B3B4F90C3043F0F3
:1014B00040034FF0FF30A38103B0BDE8F08F002060
:1014C00070471E46AA46994618461D46009756B3D1
:1014D00088B34A46D4E904132068B24228BF324692
:1014E000884205D9A16803EB010B5A4500F3A68099
:1014F000934263DC216AA76A2A464046B847B0F1A6
:10150000000BD2DDB9EB0B09CAD00120009A936819
:10151000A3EB0B035D44A6EB0B069360002B3FF49B
:1015200076AF002ED4D10AF1080353E902569A4649
:101530000833002EF9D032460A21284600F058F927
:10154000002800F09C800130A0EB0509C1E720686D
:101550002369984216D86369B34213D86FF00042EA
:10156000B24228BF3246216A92FBF3F2A76A02FB1D
:1015700003F340464A46B847B0F1000A95DDA6EBB2
:101580000A0678E7B345DA4628BFB24652464946CE
:1015900000F07EF9A3682268A3EB0A035244A3601B
:1015A0002260002BEBD121464046FFF795FE002834
:1015B000E5D07AE72068B34632464EE729460192E5
:1015C00000F066F9019AA3689B1AA360236813448C
:1015D0002360934696E723682169A3EB010B6369B7
:1015E00003EB430A0AEBDA7A0BF101034FEA6A0ACA
:1015F00033445345524684BF9A46524643052CD540
:1016000011464046FEF706FF00283BD05A462169A6
:101610000190FEF7B1FDA289019B22F4906242F095
:101620008002A28103EB0B002361AAEB0B03C4F839
:1016300014A0A3602060B34632460EE729465A46FE
:1016400000F026F923685B44236021464046FFF7FB
:1016500043FE00283FF456AF27E7404600F094F9D8
:1016600003460028DED121694046FEF771FEB4F939
:101670000C300C2223F08003C8F8002017E7721CFE
:10168000914627E70C22B4F90C30C8F800200EE789
:101690004FF0FF30BCE600BF00FCFF7F38B50C46C2
:1016A000084D8446114620461A4600232B606446A6
:1016B00001F032F9431C00D038BD2B68002BFBD061
:1016C000236038BD98020020F0B58B890C4699073D
:1016D00097B007D504F147030122C4E9043223601F
:1016E00017B0F0BDB4F90E10002905462DDB6A468F
:1016F00000F088F9002827DB019E06F470464FF4BD
:101700008067A6F50056B6FA86F639462846760969
:10171000FEF780FE30B3A3891A4AAA6243F0800321
:10172000C4E90407A3812060002ED9D0B4F90E10BB
:10173000284600F07DF90028D2D0A38923F00303C6
:1017400043F00103A381CBE7A38913F0800F14BFFB
:1017500040274FF48067394628460026FEF75AFE98
:101760000028D8D1B4F90C309A05B9D423F003037A
:1017700004F1470243F002030121C4E90421A381DB
:101780002260ADE75105000870B50C46B1F90E10A6
:10179000002996B016461D4613DB6A4600F032F962
:1017A00000280EDB019901F47041A1F50051B1FA56
:1017B00081F14FF48063490900202960336016B03D
:1017C00070BDB4F90C3000221B062A6004D54023FA
:1017D0000020336016B070BD4FF48063002033608A
:1017E00016B070BD00000000000000000000000006
:1017F00001F0FF01102A2BDB10F0070F08D010F8C2
:10180000013B013A8B422DD010F0070F42B3F6D1C5
:10181000F0B441EA012141EA014122F007047FF0DE
:1018200000070023F0E80256083C85EA010586EA35
:10183000010685FA47F5A3FA87F586FA47F6A5FA71
:1018400087F68EB9EED1F0BC01F0FF0102F007027D
:1018500032B110F8013B013A83EA010313B1F8D128
:101860000020704701387047002D06BF3546033809
:10187000073815F0010F07D1013015F4807F02BF42
:10188000013015F4C03F0130F0BC0138704700BF93
:1018900088420DD98B1883420AD900EB020CBAB1E9
:1018A000624613F801CD02F801CD9942F9D1704793
:1018B0000F2A0ED8034602F1FF3C4AB10CF1010C8D
:1018C000013B8C4411F8012B03F8012F6145F9D13C
:1018D000704740EA01039B0750D1A2F1100370B595
:1018E00001F1200C23F00F0501F1100E00F110049E
:1018F000AC441B095EF8105C44F8105C5EF80C5CAC
:1019000044F80C5C5EF8085C44F8085C5EF8045C23
:1019100044F8045C0EF1100EE64504F11004E9D120
:10192000013312F00C0F01EB031102F00F0400EB76
:10193000031327D0043C24F003064FEA940C1E4402
:101940001C1F8E465EF8045B44F8045FB442F9D174
:101950000CF1010402F0030203EB840301EB8401A8
:1019600002F1FF3C4AB10CF1010C013B8C4411F82F
:10197000012B03F8012F6145F9D170BD02F1FF3C45
:1019800003469BE72246EBE7F8B51446F9B1CAB126
:1019900006460D4600F05EF8A04202D32F463846B8
:1019A000F8BD21463046FEF735FD07460028F6D043
:1019B00022462946FEF7E0FB30462946FEF7C8FCE2
:1019C0003846F8BD2746FEF7C3FC3846F8BDBDE8EB
:1019D000F8401146FEF71EBD38B50C46084D84464A
:1019E000114620461A4600232B60644600F09CFFF7
:1019F000431C00D038BD2B68002BFBD0236038BDC2
:101A00009802002070B50C46084D0346002620467B
:101A100011461C462E6000F06FFF431C00D070BDC5
:101A20002B68002BFBD0236070BD00BF9802002004
:101A300038B5074D0022044608462A6000F064FFCE
:101A4000431C00D038BD2B68002BFBD0236038BD71
:101A50009802002051F8040C0028A0F10400BCBF3B
:101A60000B58C018704700BF08B52DED028BB0EEC3
:101A7000408A00F0CFF8144B93F900300133F0EEB8
:101A8000408A0FD0B4EE488AF1EE10FA0AD6B0EED2
:101A9000480A00F03DFEF7EE007AB4EEE70AF1EEF8
:101AA00010FA04DCB0EE680ABDEC028B08BD01F050
:101AB00017FBBDEC028B034621221A600348BDE8E8
:101AC000084000F03BBE00BF6400002070730008B7
:101AD00000F0A6B908B52DED048BF0EE408AB0EE0B
:101AE000608A00F043FA474B93F900300133B0EEBF
:101AF000409A1FD0B4EE488AF1EE10FA1AD6F4EEEE
:101B0000688AF1EE10FA59D6DFED3F9AF4EE698A51
:101B1000F1EE10FA13D1B4EE698AF1EE10FA29D081
:101B2000B0EE480A00F0FCFD20B1B4EEE98AF1EE17
:101B300010FA4DD4B0EE490ABDEC048B08BD00F09C
:101B4000EFFDF0B1B5EE409AF1EE10FAF2D1B0EE41
:101B5000680A00F0E5FD0028ECD0B0EE480A00F07D
:101B6000DFFD0028E6D001F0BBFA22239FED269A84
:101B70000360DFE7B7EE009AB0EE490ABDEC048BD4
:101B800008BDB0EE680A00F0CBFD0028DAD0B0EE58
:101B9000480A00F0C5FD0028D4D0B4EE499AF1EE11
:101BA00010FA28D601F09CFAF5EEC08A2223F1EE55
:101BB00010FA036013D49FED159ABBE7B5EE408A87
:101BC000F7EE007AF1EE10FA08BFB0EE679AB1E7CF
:101BD00001F086FA21239FED0E9A0360AAE7B0EE8A
:101BE000480A00F0B1FDB4EE480AF1EE10FAE2D076
:101BF0009FED079A9EE701F073FA212389EEA99AD7
:101C0000036097E764000020000000000000807F70
:101C1000000080FF38B510EE105A25F00044B4F1F2
:101C20007E5F2DED048B00F085807ADCB4F17C5F63
:101C30000FDAB4F1485F80F29C80DFED697A70EED4
:101C4000277AB7EE007AF4EEC77AF1EE10FA00F3D5
:101C50008D8000F05DFDF7EE007A37EEC00AB6EE3B
:101C6000008A20EE088A9FED5F7ADFED5F6A9FEDC4
:101C70005F6A9FED5F5ADFED5F5ADFED5F8AE8EE46
:101C8000076A9FED5E7AA8EE067A9FED5D6AA6EE82
:101C9000885AA7EE086A9FED5B7ADFED5B6AE5EE96
:101CA000085AA6EE087AE5EE886AE7EE087AE6EECC
:101CB000888AB0EE480AB0EE679A00F051FC534BA8
:101CC0009C4268EE888A42DC10EE103A23F47F636F
:101CD00023F00F0306EE903AA6EEE68A70EE267A1F
:101CE00088EE895AC8EE274A9FED497ADFED497A96
:101CF000B0EE006AA4EEC67A30EE000AF0EE675A43
:101D0000E6EEC65A90EE057A37EE657A37EEC77A78
:101D1000002D0ADCBDEC048BB1EE477AB0EE470A29
:101D200038BD70EE407A87EEA77ABDEC048BB0EE3A
:101D3000470A38BD9FED367ADFED377A20EE077A15
:101D4000BDEC048BA0EE277AB0EE470A38BD88EED2
:101D5000896A9FED327ADFED307AA0EE060AF0EE66
:101D6000006AA0EE267A37EEC77AD1E7B0EE407A65
:101D7000DBE760EE007A9FED1B7ADFED1B6A9FEDDB
:101D80001C6ADFED1A5A9FED1B5AE7EE876ABDEC1D
:101D9000048BA6EEA76A9FED197ADFED196AA7EE0C
:101DA000A57AA6EE275AE7EE276ADFED175A9FEDD0
:101DB000156A9FED117AE5EE275AA6EEA76AA5EE01
:101DC000A77AF7EE006AE6EE276A67EE277AB0EEAA
:101DD000407A87EEA66AA0EE067AB0EE470A38BDD2
:101DE000CAF2497108EF1138047F4F3A2EC69D3D63
:101DF000461124BDA80A4E3EABAA2A3E613330BF2D
:101E00002D57014039D119C090B0A6BE9999793F9C
:101E10002EBD3BB3DB0F493FDB0FC93F2EBD3B332C
:101E200010B582B0CDED010A019B23F00042B2F162
:101E3000FF4FF0EE407A30DC10EE100A20F0004147
:101E4000B1F1FF4F29DCB3F17E5F42D09C1704F063
:101E5000020444EAD07431B37AB3B2F1FF4F40D0F8
:101E6000B1F1FF4F29D08A1AB2F1F45F4FEAE25183
:101E700034DA002B42DA3C3140DA9FED340A012C8F
:101E80004ED0022C43D064B19FED317ADFED317A30
:101E900030EE070A30EE670A03E09DED017A37EE77
:101EA000270A02B010BD022C10D09FED2B0A032C84
:101EB00018BFB0EE670A02B010BD9FED280ADFED33
:101EC000287A0028B8BFB0EE670AEAE79FED210A3A
:101ED000E7E702B0BDE8104000F046BB9FED1F0AE7
:101EE000CDE7B1F1FF4F04F1FF3420D0022C26D80A
:101EF0001C4B03EB840494ED030AD2E79DED017AB9
:101F000087EE870A00F004FC00F02EFBB7E79FED98
:101F1000107ADFED107A30EE070A37EEC00AC0E71C
:101F200010EE103A03F1004300EE103AB9E7022C2C
:101F300008D80C4B03EB840494ED000AB1E79FED45
:101F4000030AAEE79FED080AABE700BF0000000000
:101F50002EBDBB33DB0F4940DB0F49C0DB0FC93F50
:101F6000DB0FC9BF30720008DB0F493F2DE9F04796
:101F700010EE904A34F000482DED028B15D010EE93
:101F8000105A25F00047B7F1FF4F10EE109A06DD0A
:101F9000BDEC028BB948BDE8F04700F0CFBBB8F10B
:101FA000FF4F08DDB7F17E5FF2D1B7EE000ABDEC5E
:101FB000028BBDE8F087002D10EE906AC0F2F4802D
:101FC0004FF0000AB8F1FF4F00F00281B8F17E5FD8
:101FD00000F02881B6F1804F00F03D81B6F17C5FC2
:101FE00000EE105A40F00181B9F1000F80F2388103
:101FF00000F08EFBB7F1FF4F00F00981002F00F0D9
:102000000281B7F17E5F00F0F8804FEAD973013B9F
:102010005AEA030200F02A81B8F19A4F40F3508146
:10202000974A974240F35982964A974200F3FF80BD
:10203000F7EE007A30EE670A9FED936ADFED935A70
:10204000F5EE007AA0EE676AF6EE006AE6EE406A08
:1020500020EE007ADFED8E7A9FED8E6A27EE267AEB
:1020600067EEC77AE0EE257AF0EE676AE0EE066A80
:1020700016EE902A22F47F6222F00F0207EE102A59
:10208000A0EE467A06EE902A77EEC77A26F47F66AF
:1020900026F00F0607EE104A06EE106A67EE877A02
:1020A00037EE466A07EE106AE6EE267A0AF1FF3A44
:1020B0005AEA030326EE877AB7EE000A77EE876ABC
:1020C000BFEE006A16EE903A0CBFB0EE468AB0EE54
:1020D000408A002B23F0004240F3B581B2F1864FD5
:1020E00000F3F48100F0E781B2F17C5F00F3B78187
:1020F0000022104623F47F6323F00F0306EE103A0C
:10210000DFED656A9FED655A9FED652A9FED653AA3
:10211000DFED653A9FED654ADFED654A36EE477AB9
:10212000F0EE002A77EEC77A26EE267ADFED616AB6
:10213000A7EEA67AF0EE476AE6EE056A66EEA65AC4
:10214000F0EE667AA5EE823AE6EE457AB0EE636A84
:10215000A3EE256A77EE677AB0EE447AA6EE257A8A
:10216000B0EE646AA7EE256AB0EE667AA6EE657AEE
:10217000E6EEA77A66EE875A37EE626AB7EE005A45
:1021800085EE867A77EE677A77EEE66A35EE660A4E
:1021900010EE103A1344B3F5000FC0F2B68100EE12
:1021A000103A20EE080A02E7B8F1974F1ADAB8F1B0
:1021B0007E5F0ADB4FEAE853C3F1960348FA03F265
:1021C00002FA03F3434500F039814FF0000AFDE6BF
:1021D000B7F17E5F3FF4E9AE2FDD002E2ADB00EE83
:1021E000104AE4E64FF0020AECE600F091FAB7F18B
:1021F000FF4F02D0002F7FF404AF002EBCBFF7EEDC
:10220000007A87EE800AB9F1000FBFF6D0AEA7F1D1
:102210007E5757EA0A0340F00A8170EE407A87EE53
:10222000A70AC4E6002E0FDB00EE105ABFE6002E10
:1022300000F356819FED200AB9E6002EFADA07EE88
:10224000904AB1EE670AB2E607EE105AF7EE007A4E
:1022500087EE870AABE607EE905A27EEA70AA6E6B6
:10226000BDEC028BBDE8F04700F07AB907EE905A5A
:1022700077EEE77A87EEA70A99E600BF7073000849
:10228000F7FF7F3F0700803FABAAAA3E70A5EC3660
:102290003BAAB83F00AAB83F8CBEBF350072313FA1
:1022A0004CBB31330EEADDB555B38A38610B36BB12
:1022B000ABAA2A3E1872313F000000000000804B9C
:1022C00019F0FF4F40F0F5805FED047A60EE277A59
:1022D0006FF0170217EE907A8D48F915C7F31607BD
:1022E0007F398742114447F07E5240F3DA808948B3
:1022F000874240F3FA809FED885A0131B0EE453AAB
:10230000A2F50002F7EE005A002006EE102A76EE43
:10231000257AB7EE007A87EE270A521042F0005273
:1023200002F58022024476EE656A07EE901A66EEA8
:10233000803AB8EEE77A13EE901A07EE902A774AC1
:10234000DFED770A9FED778A9FED771ADFED772A29
:10235000DFED771A9FED772A77EEE55A114004EE0C
:10236000901A36EE656A63EEA35AE4EEE76AF0EE81
:10237000607AE5EE887AE4EEC66AA7EEA51A66EE04
:10238000806AE1EE252A73EEA47AE2EEA51A25EE24
:10239000A58AA1EEA52A67EEA67AB0EE084AB0EEAD
:1023A000446AE8EE027AA4EEA46ADFED630A9FEDC8
:1023B000631ADFED632A36EE276A16EE101A114013
:1023C00006EE101A76EE445AE4EEE45A77EEE57A19
:1023D00067EEA37AE6EE867AF0EE675AE4EE865A66
:1023E00015EE901A114006EE901AE4EEC66A05EE5C
:1023F000901A77EEE67A67EEA07AE5EE817A77EECC
:10240000837AF0EE676AE5EEA26A76EE856A76EE8A
:10241000876A16EE901A114006EE901A36EEC77AC9
:1024200037EE457AA5EEE27A77EEC77A2EE6BAF174
:10243000010F7FF4BCADB1EE400AB8E502F0010235
:10244000C2F1020AC2E53F498A4257DC7FF44CAE32
:1024500076EEC76AF4EEE76AF1EE10FA4EDAD215BC
:102460004FF400017E3A41FA02F21A44C2F3C75116
:10247000354C7F390C41C2F3160022EA040206EE05
:10248000902A37EE667A40F40000C1F11701084146
:10249000002B77EE876AB8BF404216EE903AC2052D
:1024A00028E69FED1D5AF7EE005AB0EE453A00209F
:1024B0002BE7002210E79FED256A76EEC76A37EE1C
:1024C000866AB4EEE66AF1EE10FAC8DDDFED207A36
:1024D00028EE270A20EE270A69E5002EBFF6AAAEED
:1024E0009FED1B0A20EE000A61E59FED1A5A9FED51
:1024F0001A3AF7EE085A4FF4001006E7DFED177AA4
:1025000028EE270A20EE270A51E500F07BF948E67D
:1025100071C41C00D6B35D000000000000F0FFFF96
:1025200055326C3E42F1533E05A38B3EABAAAA3E08
:10253000B76DDB3E9A99193F4F38763FA0C39D3661
:102540000038763F00001643FFFF7F003CAA383377
:10255000CAF2497100C0153FDCCFD1356042A20DEF
:10256000B1EEC00A704700BF38B510EE105A25F022
:102570000044B4F1A14FF0EE407A0BDBB4F1FF4F11
:1025800058DCDFED517A9FED510A002DC8BFB0EE47
:10259000670A38BD4E4B9C425BDCB4F1445F4CDBB8
:1025A0004FF0FF3267EEA76ADFED4A4ADFED4A5A85
:1025B0009FED4A5A9FED4A4A26EEA67AB0EE666A29
:1025C000E7EE245A531CDFED474ADFED476AA5EEDC
:1025D000875AE7EE246ADFED455ADFED454AE6EE1D
:1025E000875AA5EE074A9FED435ADFED436AA5EEF1
:1025F000875AE4EE074ADFED415AE4EE876AE5EEDA
:10260000075A66EE866A25EE877A37D03C4B03EB95
:10261000820376EE876A93ED000A93ED047A96EED4
:10262000A70A002D70EE677A37EE670AB1DAB1EECD
:10263000400A38BD30EE000A38BD9FED327A30EEE8
:10264000077AF7EE006AB4EEE67AF1EE10FAA7DD4B
:1026500038BD00F05DF82C4B9C4216DCA3F5D0038E
:102660009C4227DCF0EE007ABFEE007AA0EE277ADB
:10267000002230EE270AC7EE007A93E776EE876AEB
:10268000E6EEE77AB0EE670A38BD204B9C420BDCE1
:10269000F7EE087AB7EE007AA0EE277A022230EE43
:1026A000670AC0EE077A7DE7BFEE007AC7EE007AD0
:1026B000032277E7F7EE007A30EE677A30EE270AEA
:1026C0000122C7EE007A6DE7DB0FC93FDB0FC9BF00
:1026D000FFFFDF3ED769853C59DA4B3D356B883DBE
:1026E0006E2EBA3D21A215BD6BF16EBD95879DBDC5
:1026F0002549123E388EE3BDABAAAA3ECDCC4CBED6
:1027000048720008CAF24971FFFF973FFFFF1B4064
:1027100010EE103A23F0004300EE103A704700BF6D
:1027200082B08DED010A019820F00040B0F1FF4F1A
:10273000ACBF0020012002B0704700BF9FED010A2E
:10274000704700BF0000C07F10EE101AC1F3C753DE
:10275000A3F17F02162A21F0004325DC53B3002A9F
:1027600082B04FEAD17026DB244B1341194219D0B5
:102770004FEA530C11EA530307D04FF4001321EA38
:102780000C0113410B4300EE103A1D4B03EB800389
:10279000D3ED007A37EE800A8DED010A9DED010A36
:1027A00030EE670A02B07047B3F1FF4F02D330EE4C
:1027B000000A70477047124AC1F316035B4202EBEE
:1027C00080005B0A0A0D03F480031205134307EE31
:1027D000903AD0ED006A36EEA77A01F000418DED17
:1027E000017ADDED017A77EEE67A17EE903A23F082
:1027F00000430B4300EE103AD4E700BFFFFF7F0019
:102800006872000882B08DED010A019B33F000422E
:102810002AD0B2F1FF4F23D213F0FF4F28D19DED04
:10282000017ADFED2A7A2A4B67EE277A9842CDEDBE
:10283000017A37DB019BC3F3C752193A0244FE2ADF
:102840001ADD9FED240A9FED247A019B002BF0EE08
:10285000407AB8BFB0EE470A20EE270A02B07047B0
:1028600030EE000A02B070479DED010A02B07047D9
:10287000D20D0244FE2AE4DC002A0BDC12F1160F12
:1028800017DA4CF250339842DBDC9FED140A9FEDCF
:10289000147ADAE723F0FF4343EAC25300EE103A1A
:1028A00002B070479FED0D0ADDED017A27EE800A38
:1028B000D8E7193223F0FF4343EAC253DFED097A28
:1028C00007EE103A27EE270ACCE700BF0000004CC5
:1028D000B03CFFFFCAF24971CAF249F16042A20D51
:1028E0006042A28D00000033024B58221A604FF064
:1028F000FF30704798020020024B58221A604FF0B8
:10290000FF30704798020020024B58221A600020C6
:10291000704700BF98020020024B58221A604FF007
:10292000FF30704798020020024B58221A604FF087
:10293000FF30704798020020044A05491368002BB5
:1029400008BF0B4618441060184670479C020020D0
:10295000F4050020024B58221A604FF0FF307047F8
:102960009802002070B54FF0FF0C4CF4E06C1CEAAC
:1029700011541DBF1CEA135594EA0C0F95EA0C0F75
:1029800000F0DEF82C4481EA030621EA4C5123EAE8
:102990004C5350EA013518BF52EA033541F4801117
:1029A00043F4801338D0A0FB02CE4FF00005E1FBCA
:1029B00002E506F00042E0FB03E54FF00006E1FB14
:1029C00003569CF0000F18BF4EF0010EA4F1FF0457
:1029D000B6F5007F64F5407404D25FEA4E0E6D4197
:1029E00046EB060642EAC62141EA55514FEAC520A8
:1029F00040EA5E504FEACE2EB4F1FD0C88BFBCF524
:102A0000E06F1ED8BEF1004F08BF5FEA500E50F1D4
:102A1000000041EB045170BD06F0004646EA01019A
:102A200040EA020081EA0301B4EB5C04C2BFD4EBCC
:102A30000C0541EA045170BD41F480114FF0000EC5
:102A4000013C00F3AB8014F1360FDEBF002001F033
:102A5000004170BDC4F10004203C35DA0C341BDCAD
:102A600004F11404C4F1200500FA05F320FA04F07F
:102A700001FA05F240EA020001F0004221F00041B3
:102A800010EBD37021FA04F642EB06015EEA430E26
:102A900008BF20EAD37070BDC4F10C04C4F1200556
:102AA00000FA04F320FA05F001FA04F240EA020009
:102AB00001F0004110EBD37041F100015EEA430EDA
:102AC00008BF20EAD37070BDC4F1200500FA05F2FA
:102AD0004EEA020E20FA04F301FA05F243EA020379
:102AE00021FA04F001F0004121FA04F220EA020088
:102AF00000EBD3705EEA430E08BF20EAD37070BDCE
:102B000094F0000F0FD101F00046400041EB0101AD
:102B100011F4801F08BF013CF7D041EA060195F08F
:102B2000000F18BF704703F00046520043EB030349
:102B300013F4801F08BF013DF7D043EA0603704736
:102B400094EA0C0F0CEA135518BF95EA0C0F0CD041
:102B500050EA410618BF52EA4306D1D181EA030187
:102B600001F000414FF0000070BD50EA410606BF81
:102B70001046194652EA430619D094EA0C0F02D1C6
:102B800050EA013613D195EA0C0F05D152EA03360B
:102B90001CBF104619460AD181EA030101F0004129
:102BA00041F0FE4141F470014FF0000070BD41F072
:102BB000FE4141F4780170BD81F0004102E000BFA8
:102BC00083F0004330B54FEA41044FEA430594EAED
:102BD000050F08BF90EA020F1FBF54EA000C55EA28
:102BE000020C7FEA645C7FEA655C00F0E2804FEAF9
:102BF0005454D4EB5555B8BF6D420CDD2C4480EADB
:102C0000020281EA030382EA000083EA010180EA0A
:102C1000020281EA0303362D88BF30BD11F0004F58
:102C20004FEA01314FF4801C4CEA113102D040428E
:102C300061EB410113F0004F4FEA03334CEA1333C9
:102C400002D0524263EB430394EA050F00F0A780E1
:102C5000A4F10104D5F1200E0DDB02FA0EFC22FADC
:102C600005F2801841F1000103FA0EF2801843FAD0
:102C700005F359410EE0A5F120050EF1200E012AC1
:102C800003FA0EFC28BF4CF0020C43FA05F3C018FF
:102C900051EBE37101F0004507D54FF0000EDCF178
:102CA000000C7EEB00006EEB0101B1F5801F1BD321
:102CB000B1F5001F0CD349085FEA30004FEA3C0C25
:102CC00004F101044FEA445212F5800F80F09A801B
:102CD000BCF1004F08BF5FEA500C50F1000041EB1F
:102CE000045141EA050130BD5FEA4C0C404141EB23
:102CF0000101013C28BFB1F5801FE9D291F0000F1E
:102D000004BF01460020B1FA81F308BF2033A3F1CC
:102D10000B03B3F120020CDA0C3208DD02F1140CC3
:102D2000C2F10C0201FA0CF021FA02F10CE002F1FE
:102D30001402D8BFC2F1200C01FA02F120FA0CFCF7
:102D4000DCBF41EA0C019040E41AA2BF01EB045140
:102D5000294330BD6FEA04041F3C1CDA0C340EDC3E
:102D600004F11404C4F1200220FA04F001FA02F381
:102D700040EA030021FA04F345EA030130BDC4F13F
:102D80000C04C4F1200220FA02F001FA04F340EA34
:102D90000300294630BD21FA04F0294630BD94F0E5
:102DA000000F83F4801306BF81F480110134013DCC
:102DB0004EE77FEA645C18BF7FEA655C29D094EA3D
:102DC000050F08BF90EA020F05D054EA000C04BFBB
:102DD0001946104630BD91EA030F1EBF00210020A6
:102DE00030BD5FEA545C05D14000494128BF41F045
:102DF000004130BD14F580043CBF01F5801130BDA9
:102E000001F0004545F0FE4141F470014FF0000033
:102E100030BD7FEA645C1ABF194610467FEA655CE4
:102E20001CBF0B46024650EA013406BF52EA033586
:102E300091EA030F41F4002130BD00BF90F0000F74
:102E400004BF0021704730B54FF4806404F13204B0
:102E50004FF000054FF0000150E700BF90F0000F69
:102E600004BF0021704730B54FF4806404F1320490
:102E700010F0004548BF40424FF000013EE700BF60
:102E800042004FEAE2014FEA31014FEA02701FBFF0
:102E900012F07F4393F07F4F81F06051704732F022
:102EA0007F4208BF704793F07F4F04BF41F4002179
:102EB000704730B54FF4607401F0004521F00041D7
:102EC0001CE700BF50EA010208BF704730B54FF061
:102ED00000050AE050EA010208BF704730B511F062
:102EE000004502D5404261EB41014FF4806404F19A
:102EF00032045FEA915C3FF4D8AE4FF003025FEA20
:102F0000DC0C18BF03325FEADC0C18BF033202EBA3
:102F1000DC02C2F1200300FA03FC20FA02F001FAFD
:102F200003FE40EA0E0021FA02F11444BDE600BFA0
:102F30004FF0FF3C06E000BF4FF0010C02E000BF85
:102F40004FF0010C4DF804CD4FEA410C7FEA6C5C68
:102F50004FEA430C18BF7FEA6C5C1BD001B050EA0B
:102F6000410C0CBF52EA430C91EA030F02BF90EAF6
:102F7000020F0020704710F1000F91EA030F58BFB5
:102F8000994208BF90422CBFD8176FEAE37040F017
:102F9000010070474FEA410C7FEA6C5C02D150EAB5
:102FA000013C07D14FEA430C7FEA6C5CD6D152EA70
:102FB000033CD3D05DF8040B704700BF8446104635
:102FC00062468C461946634600E000BF01B5FFF734
:102FD000B7FF002848BF10F1000F01BD4DF808ED04
:102FE000FFF7F4FF0CBF012000205DF808FB00BFD5
:102FF0004DF808EDFFF7EAFF34BF012000205DF82F
:1030000008FB00BF4DF808EDFFF7E0FF94BF01207B
:1030100000205DF808FB00BF4DF808EDFFF7CEFF7C
:1030200094BF012000205DF808FB00BF4DF808EDBB
:10303000FFF7C4FF34BF012000205DF808FB00BF8C
:103040004FEA4102B2F1E04324BFB3F5001CDCF1CA
:10305000FE5C0DD901F0004C4FEAC0024CEA507002
:10306000B2F1004F40EB830008BF20F00100704731
:1030700011F0804F21D113F13872BCBF01F0004034
:10308000704741F480114FEA5252C2F11802C2F166
:10309000200C10FA0CF320FA02F018BF40F00100E7
:1030A0004FEAC1234FEAD32303FA0CFC40EA0C0099
:1030B00023FA02F34FEA4303CCE77FEA625307D1D6
:1030C00050EA01331EBF4FF0FE4040F4400070470D
:1030D00001F0004040F0FE4040F40000704700BFA7
:1030E000014B1868704700BF0000002008B5024877
:1030F00000F052FD08BD00BF5003002008B5024893
:1031000000F04AFD08BD00BF6C03002008B502486E
:1031100000F042FD08BD00BF8803002010B5002468
:1031200008E004EB4402930000210448184401F035
:10313000D3FD0134032CF4D910BD00BFE001002001
:1031400008B546224FF4FA711C4800F01BFD4622D8
:103150004FF4FA711A4800F015FD46224FF4FA7147
:10316000184800F00FFD46224FF4FA71164800F09F
:1031700009FD46224FF4FA71144800F003FD46227F
:103180004FF4FA71124800F0FDFC46224FF4FA7138
:10319000104800F0F7FC46224FF4FA710E4800F098
:1031A000F1FC46224FF4FA710C4800F0EBFC32229D
:1031B0004FF4FA710A4800F0E5FC08BDFC0200205B
:1031C0001803002034030020A8020020C4020020BD
:1031D000E0020020500300206C0300208803002040
:1031E000C803002000000000F0B52DED028B85B073
:1031F00005460C4616461F4691ED028AD2ED027A2C
:1032000038EE678ADFED607AB4EEE78AF1EE10FA05
:1032100064DDDFED5E7A38EE678AD4ED008AF0EE89
:10322000007A78EEE78AC4ED008A6068FFF728FE2E
:1032300053A3D3E90023FFF7C3FCFFF701FF07EE19
:10324000900A6060524B19780131C9B21970012996
:1032500050D002295AD0032966D09FED4E8AF0EE55
:10326000488AB0EE480AD7ED017AF1EE677A37EE78
:10327000C00A494801F0A4F8FDEEC07A17EE904A62
:1032800097ED000AB1EE400A30EE680A434801F0BB
:1032900097F8FDEEC07A17EE906A97ED020A30EECD
:1032A000480A3F4801F08CF8FDEEC07A17EE901AFC
:1032B00004F5FA72931B0B442B4400933244521AC8
:1032C0002A440192C4F5FA739A1B521A2A440292B4
:1032D00033440B442B44039300244AE0DFED317A5E
:1032E000B4EEE78AF1EE10FA97D5DFED287A38EEE2
:1032F000278A92E796ED000A30EE680A2A4801F024
:103300005FF89FED248AF0EE488AACE796ED010A5B
:1033100030EE670A254801F053F8F0EE408A9FED41
:103320001D8AB0EE480A9EE7194B00221A70B0EED3
:10333000480A1F4801F044F8B0EE408ADFED158AD4
:10334000B0EE680A8FE704AB03EB84054FF47A62B2
:103350004FF4FA7155F8100C01F031F9014645F8B7
:10336000100C04EB4400134B03EB800001F0B4FCA1
:103370000134032CE7D905B0BDEC028BF0BD00BFD2
:103380005C8FC2F5285CF33F000034430000B44377
:10339000A40200200000000090000020E0000020B7
:1033A00030010020000034C368000020B800002075
:1033B00008010020E001002008B5DFED080ADFED7C
:1033C000087A80EE270AFEF785FBF7EE007A77EEA3
:1033D000C07A9FED040A27EE800A08BDB1DC423EA8
:1033E00080E6C547D048874A2DE9F0472DED068B8A
:1033F00084B00146F0EE409AB0EE609A002301934B
:103400000293039301AA4F4800F0BCFDDFED4E6A22
:103410009DED017A27EE267A8DED017ADDED027AB7
:1034200067EEA67ACDED027A9DED038A28EE268A14
:103430008DED038ADFED450A38EE608A8DED038A53
:10344000434B83ED007AC3ED017A83ED028A414B51
:1034500093ED02AA79EECA8AF5EEC08AF1EE10FA6F
:1034600014D4DFED3D7AF4EEE78AF1EE10FACCBF2A
:1034700001230023A3B1374BC3ED029A374B00223F
:103480009A6004B0BDEC068BBDE8F087DFED347ABE
:10349000F4EEE78AF1EE10FA4CBF01230023E9E7CE
:1034A000DFF8B8A0DAED029A69EE897A17EE900A91
:1034B000FFF7E6FC06460F4618EE100AFFF7E0FCA1
:1034C0000022284BFFF74EFA8046894619EE100A73
:1034D000FFF7D6FC04460D4602460B4640464946D9
:1034E000FFF740FA02460B4620462946FFF73AFA14
:1034F00002460B4630463946FFF764FB04460D464C
:103500001AEE100AFFF7BCFC22462B46FFF75AFBC7
:10351000FFF796FD07EE900A0E4B986028EE098A99
:1035200039EE888A8AED028A0F4A92ED007A68EEB7
:10353000878A77EEA87AC3ED027A38EE288A8AED78
:10354000028A9EE7580100200000754400C07844BC
:10355000A4030020B00300200000FA43BC030020B5
:103560000000FAC30000E03FA0010020F0B52DEDFF
:10357000028B9FB003F0FCFA1D9000241A941B9458
:103580001C941894ADF864401694ADF85C40139404
:1035900014941594109411941294DFED8F8ACDED4C
:1035A0000D8ACDED0E8ACDED0F8A0A940B940C9402
:1035B0000794089409940594069403940494274668
:1035C000264691E000273E46844D16A9284601F084
:1035D000E9FB18A9284601F0B3FBBDF860300733BA
:1035E000ADF86030BDF86230363BADF86230BDF802
:1035F00064300633ADF8643010AA16A9284601F0ED
:103600002DFC13AA18A9284601F0F8FB9DED130A1A
:10361000734800F0C1FA9DED140A724800F0BCFA3C
:103620009DED150A704800F0B7FA9DED100A6F483D
:1036300000F0B2FA9DED110A6D4800F0ADFA9DED73
:10364000120A6C4800F0A8FADDED117AF1EE677A03
:10365000CDED117ADDED127AF1EE677ACDED127AC9
:10366000DDED147AF1EE677ACDED147ADDED157AA1
:10367000F1EE677ACDED157A5F4BA3FB0423DB08EF
:1036800003EB8303B4EB430F44D09FED5C8A0AAB9A
:1036900001930DAB0093B0EE480A13AB10AA584942
:1036A000584800F02BFEF0EE480A574B93ED000A05
:1036B00010A8FFF799FE01211AA801F050F863281D
:1036C00001DD002F46D0FFF729FD504800F0B0FE85
:1036D0004F4800F0ADFE4F4800F0AAFEDDED0C8A29
:1036E00002211DA803F03AFB0134B4F57A7F00D91A
:1036F000002400231A461AA94748006802F0D7FFA1
:1037000000287FF45FAF0136642E7FF75DAF064679
:10371000012759E703A9414801F084FA9DED030A06
:10372000FFF74AFE384981ED000A00231A463C485B
:10373000006802F02DFF00231A463A493A48006813
:1037400002F026FF00231A4638493948006802F083
:103750001FFF9AE700211AA801F001F807EE900A6E
:10376000F8EEE77A78EEA78ADFED327AF4EEE78AB0
:10377000F1EE10FA23DDDFED307A78EEE78A0321EF
:103780001AA800F0ECFF07EE900AF8EEE77ACDED0C
:10379000077A02211AA800F0E2FF07EE900AF8EE7D
:1037A000E77ACDED087ACDED098A01211AA800F05B
:1037B000D6FF13AB0AAA07A9FFF716FD90E7DFEDC6
:1037C0001F7AF4EEE78AF1EE10FAD8D5DFED1A7A17
:1037D00078EEA78AD3E700BF0000000010020020A7
:1037E000FC0200201803002034030020A80200205F
:1037F000C4020020E0020020CDCCCCCC6F12033BF1
:103800008C01002058010020A00200209000002020
:10381000E00000203001002028040020A801002042
:1038200024040020B803002020040020AC03002062
:103830001C040020000034430000B443000034C3E3
:10384000F8B505460C46022102F078FC4FF4FA6206
:103850004FF47A7100F0B3FE0221284602F06EFCAC
:1038600002B2A2F57A7202EB420212B201212046A4
:1038700000F06CFF0121284602F060FC00B2A0F5C8
:103880007A70462707FB00F02F4E86FB0023C217F5
:10389000C2EBA312233A12B20321204600F056FFD6
:1038A0000021284602F04AFC02B2A2F57A7207FB18
:1038B00002F286FB0236D217C2EBA612233A12B2EC
:1038C0000221204600F042FF0321284602F036FC88
:1038D00000B2A0F57A7007EE900AF8EEE77A77EE7C
:1038E000A77ADFED1A6A87EEA67AF7EE007A77EE0E
:1038F000677AFDEEE77A17EE903A1EB23246002163
:10390000204600F023FF0621284602F017FCA0F213
:10391000EF239BB2B3F5F97F0DD9A0F2E2439BB23E
:10392000B3F5FA7F0ED3A0F2D66080B2B0F5FA7F7D
:1039300002D2022600E00126F2B20321204600F066
:1039400019FFF8BD0126F7E7D34D621000007A4455
:1039500000B58FB00023049301930293039304AB4B
:10396000202205A90E4801F061FC0DF13703049AED
:1039700005A90C4802F06FFB9DF83730012B02D0EF
:103980000FB05DF804FB01A90648FFF759FF0023BB
:103990001A4601A90448006802F0FAFDF0E700BFEA
:1039A00048020020E40300202804002008B5FFF7A7
:1039B000CFFF012003F002FAF9E70000FDEEC07A24
:1039C00017EE903A2033402B06D99FED290A704715
:1039D000DFED287A30EE670ADFED277AB4EEE70AEA
:1039E000F1EE10FAF4DC03E0DFED227A30EE270A84
:1039F000DFED227AB4EEE70AF1EE10FAF4D4DFED4F
:103A0000207AB4EEE70AF1EE10FA20DD30EE670A14
:103A100037EEC00A60EE006A20EE267ADFED197AF2
:103A200066EEA77A9FED186A77EEC67A67EEA67AF9
:103A30009FED166A77EE867A67EEA67ADFED146A56
:103A400077EEE67A67EE277A37EE800A7047DFED89
:103A5000117AB4EEE70AF1EE10FADBD5DFED087A61
:103A600030EE270ADFED0B7A37EEC00AD2E700BF4F
:103A700000000000DA0FC940DA0F4940DA0F49C0F0
:103A8000DA0FC93F9A7C2E36FAAF4F393587083C9A
:103A9000A4AA2A3EDA0FC9BF08B5DFED037A30EEDB
:103AA000270AFFF78BFF08BDDA0FC93F38B52DEDA8
:103AB000068B0446B2EB510F0DD34FF07E530360DB
:103AC000002343608360C36003610023A3616361DB
:103AD000BDEC068B38BDB0EE408A1D4607EE901A4D
:103AE000B8EE677A07EE902AF8EE677ADFED246A7F
:103AF00067EEA67AC7EE87AAB0EE6A0AFFF75EFF06
:103B0000F0EE408AB0EE6A0AFFF7C6FF38EE088A88
:103B1000C8EE886A05B3012D29D0B7EE007A76EE9B
:103B2000877AB8EE006A20EE060A37EE667AC9EEAA
:103B3000A76AC4ED006AC9EE276AC4ED016ACAEE3D
:103B4000276AC4ED026AC0EE276AC4ED036AC7EEB5
:103B5000276AC4ED046AB8E7B7EE009A39EE409AD6
:103B6000F6EE009A69EE299AB0EE69AAD5E7B8EEAA
:103B7000009A20EE099AB7EE00AAF0EE4A9ACCE736
:103B8000DA0FC94008B500239FED020AFFF78EFF48
:103B900008BD00BFF304353FB0EE407AD0ED007AA7
:103BA00067EE807A90ED050A37EE800AD0ED017A53
:103BB00067EE877AD0ED036A66EE806A77EEE67A82
:103BC000D0ED066A77EEA67AC0ED057AD0ED027ADE
:103BD00067EE877A90ED047A27EE007A77EEC77A5F
:103BE000C0ED067A7047000008B5094C0121204657
:103BF00000F094FD4FF4FA7003F0E0F80021204645
:103C000000F08CFD4FF4FA7003F0D8F8EDE700BF38
:103C1000A401002000B589B0002307930693059303
:103C200000231A4607A91348006802F040FD00234C
:103C30001A4606A91048006802F039FD00231A460A
:103C400005A90E48006802F032FD0798FFF718F941
:103C500004460D460598FFF713F9CDE902010698D1
:103C6000FFF70EF9CDE9000122462B460448FCF788
:103C700041FCD5E724040020200400201C0400207F
:103C80007072000800B583B04FF4407002F0D4F8B1
:103C900001F01EFC01F04EFC01F06AFB01F064FB38
:103CA00001F0C4FBFFF74CFA244800F09FFE00220D
:103CB0000C21012002F052FC214B1860002204214B
:103CC000012002F04BFC1F4B186000220421012050
:103CD00002F044FC1C4B186000220421012002F079
:103CE0003DFC1A4B186000240194022300932346E4
:103CF00020221749174802F0CFFE019401230093B8
:103D000023464FF480721449144802F0C5FE019412
:103D10000423009323464FF480721149114802F0A6
:103D2000BBFE01940523009323464FF400720E4915
:103D30000E4802F0B1FE02F0E1FEFEE7A80100200D
:103D40002804002024040020200400201C0400205B
:103D500080720008E93B000884720008153C0008E6
:103D60008C720008AD390008947200086D350008A7
:103D7000F6EE007A60EE277A10EE103A074AA2EBD0
:103D8000630307EE103A67EE277A67EE277AB7EEFD
:103D9000080A30EE670A27EE000A7047DF59375FDE
:103DA000D0ED017A27EEA74AD0ED026A66EEA64A68
:103DB00090ED036A26EE065A90ED007A67EE875A78
:103DC00026EE873A26EE077A67EEA62A67EE867A0F
:103DD00066EE866A74EEA44AB7EE006A76EE643A3E
:103DE00035EE055A73EEC53AC0ED043A72EEC73AA5
:103DF00073EEA33AC0ED053A73EE273A73EEA33A99
:103E0000C0ED063A37EE227A37EE077A80ED077A70
:103E100034EE044A36EE447A37EE455A80ED085ABD
:103E200036EEE56A36EE066A80ED096A77EEC37A09
:103E300077EEA77AC0ED0A7A75EEA66A76EEA66AE4
:103E4000C0ED0B6A37EE647A80ED0C7A704710B5DE
:103E50002DED048B0446F6EE007A20EE270A90ED55
:103E6000005AD0ED015A90ED026AD0ED036A91ED4F
:103E7000007A65EEC78A91ED018A68EE067A78EEDF
:103E8000E78AD1ED027A67EEA64A78EEE48A68EE18
:103E9000808A78EE858A27EE289A27EE865A39EEB0
:103EA000059A28EE265A39EE459A29EE009A39EEFF
:103EB000259A68EE289A67EE895A79EEE59A67EEB8
:103EC000265A79EEA59A69EE809A79EE869A67EE7F
:103ED000A87A28EE098A37EE888A27EE297A38EE02
:103EE000478A28EE008A38EE268A68EEA87A29EEFC
:103EF000090A77EE807A29EEA90A77EE807A28EE11
:103F0000080A37EE800AFFF733FF68EE808A29EE51
:103F1000009A69EE809A28EE008AC4ED008A84ED4A
:103F2000019AC4ED029A84ED038ABDEC048B10BDA6
:103F300038B52DED028B04460D46FFF731FF94EDA9
:103F40000A0AFDF791FD9FED0E8A20EE480A85EDE5
:103F5000000AD4ED0C0A94ED0B0AFDF7B9FD20EE32
:103F6000080A85ED010AD4ED040A94ED070AFDF76D
:103F7000AFFD20EE080A85ED020ABDEC028B38BDCC
:103F8000E12E6542D0ED047A91ED007A67EE877AF2
:103F900090ED057AD1ED016A27EE267A77EE877AE1
:103FA00090ED067AD1ED026A27EE267A77EE877ACF
:103FB000C2ED007AD0ED077A91ED007A67EE877A4C
:103FC00090ED087AD1ED016A27EE267A77EE877AAE
:103FD00090ED097AD1ED026A27EE267A77EE877A9C
:103FE000C2ED017AD0ED0A7A91ED007A67EE877A18
:103FF00090ED0B7AD1ED016A27EE267A77EE877A7B
:1040000090ED0C7AD1ED026A27EE267A77EE877A68
:10401000C2ED027A7047D0ED047A91ED007A67EE36
:10402000877A90ED077AD1ED016A27EE267A77EE4E
:10403000877A90ED0A7AD1ED026A27EE267A77EE3A
:10404000877AC2ED007AD0ED057A91ED007A67EEBD
:10405000877A90ED087AD1ED016A27EE267A77EE1D
:10406000877A90ED0B7AD1ED026A27EE267A77EE09
:10407000877AC2ED017AD0ED067A91ED007A67EE8B
:10408000877A90ED097AD1ED016A27EE267A77EEEC
:10409000877A90ED0C7AD1ED026A27EE267A77EED8
:1040A000877AC2ED027A7047F0B52DED048B8DB0A2
:1040B0000C46169E002103910491059100910191F7
:1040C0000291002800F016811546F0EE409A07464E
:1040D000002C00F00F81002A00F00C81002E00F06F
:1040E000098193ED008A8DED068AD3ED018ACDED2D
:1040F000078A93ED029A8DED089AB5EE408AF1EEAB
:1041000010FA09D1F5EE408AF1EE10FA04D1B5EEBD
:10411000409AF1EE10FA35D068EE087A28EEA80A37
:1041200077EE807A29EE090A37EE800AFFF720FE43
:1041300028EE008A8DED068A68EE808ACDED078A2A
:1041400029EE009A8DED089A03AA06A93846FFF7D2
:1041500019FF9DED030A20EE000ADDED047A67EEFB
:10416000A77A30EE270AFFF703FEB7EE007AC7EE14
:10417000007ACDED037A002304936A4603A93846FA
:10418000FFF749FF95ED008A8DED098A95ED019ABB
:104190008DED0A9AD5ED028ACDED0B8AB5EE408AF7
:1041A000F1EE10FA0AD1B5EE409AF1EE10FA05D10F
:1041B000F5EE408AF1EE10FA00F09C8068EE087A85
:1041C00029EE090A77EE807A28EEA80A37EE800AEF
:1041D000FFF7CEFD28EE008A8DED098A29EE009AC0
:1041E0008DED0A9A68EE808ACDED0B8AD7ED0C4AE8
:1041F00029EE246AD7ED0B3A68EEA37A36EE676AA9
:10420000DDED075A9DED025A65EE857ADDED086A0F
:104210009DED017A26EE874A77EEC47A36EE276A5C
:1042200097ED0A4A68EE848A68EE244A78EEE48ABA
:10423000DDED007A66EEA76ADDED064A25EE245A2A
:1042400076EEC56A78EEA68A28EE238A29EE049ACD
:1042500038EE498A27EE247A65EEA75A37EE657A5A
:1042600038EE078A94ED017A67EE067A67EEA97A4E
:10427000D4ED026A77EEA67AC4ED027A67EE286A78
:1042800066EEA95AD4ED036A76EEA56AC4ED036A18
:1042900027EE087A67EE299A94ED047A77EE299A48
:1042A000C4ED049A94ED007A27EE066A77EE867ADA
:1042B00096ED007A77EE277AC6ED007AD4ED007A93
:1042C00067EEA88AD4ED037A78EEA78AD6ED017A54
:1042D00077EEA88AC6ED018AD4ED007A27EE888AA7
:1042E000D4ED047A38EE278AD6ED027A37EE888A42
:1042F00086ED028A0DB0BDEC048BF0BD70B52DEDDE
:10430000028B88B00546B0EE408A05AE00240594C5
:1043100006940794029403940494D3ED007A9FEDDD
:104320001F7A67EE877ACDED027AD3ED017A67EED8
:10433000877ACDED037AD3ED027A67EE877ACDEDF9
:10434000047A00960E9BFFF7AFFE9DED057ADDED3A
:10435000027A77EE877ACDED027A9DED067ADDED71
:10436000037A77EE877ACDED037A9DED077ADDED5E
:10437000047A77EE877ACDED047AB0EE480A02A986
:104380002846FFF764FD2846FFF70AFD0F992846E7
:10439000FFF7CEFD08B0BDEC028B70BD35FA8E3C48
:1043A000B4EEE00AF1EE10FA07D4B4EEC10AF1EE71
:1043B00010FA04DDB0EE410A7047B0EE600A7047B3
:1043C00010B52DED028B0446B0EE408A90ED010A47
:1043D00020EE080AD0ED047A30EE270A80ED040AB8
:1043E00090ED061AD0ED050AFFF7DAFF84ED040A16
:1043F00094ED030A38EE400A636A03B19847D4ED9E
:10440000007A67EE887A94ED047A77EE877A94EDF5
:10441000027A27EE000A94ED081AD4ED070A37EE67
:10442000800AFFF7BDFF84ED038ABDEC028B10BD4F
:1044300008B10022026170477047FEE7FEE7FEE721
:10444000FEE7704708B540F22551024801F0D6FD5D
:1044500008BD00BF0038014008B540F225510B48A7
:1044600001F0CCFD012807D040F22441074801F0BB
:10447000C5FD012806D008BD40F22551034801F0D2
:10448000E2FDF1E7014801F0B5FDF4E7004400402A
:1044900008B50121054801F0BFFC012800D008BD86
:1044A0000121024801F0C4FCF9E700BF0010004000
:1044B00008B50421054801F0AFFC012800D008BD73
:1044C0000421024801F0B4FCF9E700BF00040040F9
:1044D00008B50221054801F09FFC012800D008BD65
:1044E0000221024801F0A4FCF9E700BF00400140AE
:1044F00008B5012001F0F0F9012800D008BD01F055
:10450000FBF9FBE708B54FF4802001F0EFFA012832
:1045100006D04FF4003001F0E9FA012807D008BDB9
:104520004FF4802001F0ECFA00F060FFF1E74FF467
:10453000003001F0E5FA00F069FFF0E70346C8B18A
:104540004068C8B1DA6893F800C0BCF1010F15D01B
:10455000815401329968914207D0DA60197811B913
:104560001969914203D0002070470022F5E701222B
:104570001A70F8E701207047012070470220704749
:10458000B8B103464068B0B110B41A69DC6894420F
:1045900001D11C788CB1805C08700132996891421D
:1045A00005D01A61002018705DF8044B7047002296
:1045B000F7E701207047012070470320F4E78842A5
:1045C00003DB904202DD104670470846704700004A
:1045D00010B582B0002301930093304A136843F46E
:1045E000803313602D4B1B6803F400330093019B51
:1045F00001330193009B1BB9019BB3F5405FF1D1DF
:10460000264B1B6813F4003F06D001230093009B48
:10461000012B04D002B010BD00230093F7E7204B1C
:1046200040F253121A601D4C63686360636823F4A0
:104630006053636063686360636823F4E06363608E
:1046400063686360636823F0604323F47C136360F2
:10465000636843F454136360124801F08DF82368D3
:1046600043F0807323600D4B1B6813F0007FFAD07A
:10467000012001F071F8094B5A6822F003025A60D8
:104680005A6842F002025A60044B5B6803F00C0364
:10469000082BF9D1002001F05FF8BBE700100240C1
:1046A0000020024000127A0008B5FFF791FF08BD14
:1046B00010B5164CD4F8883043F47003C4F8883031
:1046C000134B1A6842F001021A605968114A0A40F5
:1046D0005A601A6822F0847222F480321A601A68D2
:1046E00022F480221A605A6822F0684222F47F0283
:1046F0005A60196B084A0A401A634FF41F029A6005
:10470000FFF7D2FF4FF00063A36010BD00ED00E0A3
:10471000001002400C00FFE800FFFEFE28B108B5C3
:1047200003680BB10846984708BD704708B528B91B
:104730004FF48041044801F083F908BD4FF48041F3
:10474000014801F07FF9F8E700080048034618B176
:1047500003EB41018A8070470329F9D9FBE703463F
:1047600020B103EB4101B1F9040070470329F8D9E6
:1047700000207047034608B15A5470470329FBD9FB
:10478000FBE70138062805D8DFE800F019070A0D15
:10479000101316004FF4002070474FF4601070475C
:1047A0004FF4F00070474FF4783070474FF4FC201E
:1047B00070474FF47E2070474FF4FF1070474FF45E
:1047C000C010704730B587B0002301930293039364
:1047D0000493ADF814300446002800F093801223AF
:1047E00001AA10212078E568A8479DF804109DF8DB
:1047F00005301A0942EA0112228212F4006F03D036
:104800006FEA02526FEA125222821B0203F47063B3
:104810009DF806201343638213F4006F03D06FEA00
:1048200003536FEA135363829DF807309DF8082005
:10483000120142EA03329DF8091042EA1112626144
:1048400012F4002F03D06FEA02326FEA1232626173
:104850009DF80A301B0243EA01439DF80B201343E5
:10486000A36113F4002F03D06FEA03336FEA13330D
:10487000A3619DF80C209DF80D3043EA0223A38329
:104880009DF80E209DF80F3043EA02231BB2E3830C
:1048900013F4006F03D06FEA03536FEA1353E383FB
:1048A0009DF810209DF8113043EA02231BB22384A7
:1048B00013F4006F03D06FEA03536FEA135323849A
:1048C0009DF812209DF8133043EA02231BB2638443
:1048D00013F4006F03D06FEA03536FEA135363843A
:1048E0009DF814209DF8153043EA02231BB2A384DF
:1048F00013F4006F03D06FEA03536FEA1353A384DA
:1049000007B030BDC368002B7FF469AFF8E770B51E
:1049100082B004460E46154600238DF807308DF808
:1049200006301046FFF72DFF206345EA06168DF886
:104930000760A66801230DF1070206212078B04721
:10494000032D13D9E56801230DF106020921207812
:10495000A8479DF8063043F004038DF80730A5689A
:1049600001230DF1070209212078A84702B070BD8C
:1049700070B582B004460E46154600238DF8073008
:104980008DF806301046FFF7FCFE606345EA061618
:104990008DF80760A66801230DF107020721207832
:1049A000B047032D13D9E56801230DF10602092153
:1049B0002078A8479DF8063043F008038DF80730AB
:1049C000A56801230DF1070209212078A84702B04C
:1049D00070BD10B582B08DF80710846801230DF109
:1049E000070208210078A04702B010BD70B582B060
:1049F00000238DF8073038B30546836833B3C368A6
:104A000033B300240134E4B201230DF107020D2178
:104A10002878EE68B047052C1CD89DF80730102B7D
:104A2000F0D12846FFF7CEFEAA7869782846FFF72E
:104A30006EFF2A79E9782846FFF79AFF69792846B8
:104A4000FFF7C7FF002006E0012004E0012002E09C
:104A5000012000E0022002B070BD0000D0B52DEDB5
:104A6000028B82B02A4B1B88ADF8043000238DF8EE
:104A700006300446002844D0E668032301AA1946FC
:104A80002078B0479DF804209DF805301B0243EACA
:104A900002439DF806201343E36213F4000F01D094
:104AA00043F07F43E36207EE903AF8EEE77A94ED45
:104AB0000D7AB8EEC77A87EE878AB4F91000FEF750
:104AC000CDF90022134BFDF74DFF06460F46B4F912
:104AD000123007EE903AF8EEE77A67EE887A17EE32
:104AE000900AFEF7CDF902460B4630463946FEF7EE
:104AF00069F8FEF7A5FA00EE100A02B0BDEC028BD1
:104B0000D0BDC368002BB7D19FED030AF5E700BF06
:104B1000C87100080000E03F0000000030B583B01D
:104B20003E4B1B88ADF8043000238DF80630044658
:104B300000286CD0032301AA00212078E568A8474B
:104B40009DF804209DF805301B0243EA02439DF8BE
:104B500006201343A36213F4000F01D043F07F43F8
:104B6000A362D4ED0B7AB8EEE77AD4ED0D7AF8EEC5
:104B7000E77AC7EE275A07EE903AF8EEE77A94ED17
:104B80000C7AF8EEC76A87EEA67AD4ED067AF8EECC
:104B9000E76AB4F9203007EE903AB4F9243006EE13
:104BA000103AB8EEC66A26EE076AF8EEE77A77EEB4
:104BB000867A67EE877A76EEA77A25EE870AB4F9C9
:104BC0001E3006EE903AB4F9223006EE103AB8EEF6
:104BD000C66A26EE076AF8EEE66A76EE866A60EE48
:104BE000266A67EE277A94ED057AB8EEC70A70EE6A
:104BF000277AB4F91C3000EE103AB8EEC00A20EE65
:104C0000250A37EE800A30EE260A03B030BDC368AD
:104C1000002B8FD19FED020AF7E700BFC871000893
:104C20000000000038B505460C46FFF777FF84ED1D
:104C3000000A2846FFF712FF84ED010A38BD000084
:104C400000B585B08DF80F100193009201230DF18E
:104C50000F020146024800F00CFB05B05DF804FBB2
:104C60005002002000B585B08DF80F10019300921E
:104C700001230DF10F020146024800F0E6FA05B0EB
:104C80005DF804FB5002002008B500F57A61024887
:104C900000F00CF908BD00BF3002002008B500F597
:104CA0007A61024800F002F908BD00BF2C02002022
:104CB00008B500F57A61024800F0F8F808BD00BFB9
:104CC0002802002008B500F57A61024800F0EEF8ED
:104CD00008BD00BF2402002068B110B503468468F7
:104CE00044B102688A4200DC0A465868904200DB00
:104CF0001046A04710BD704700B585B08DF80F1065
:104D00000193009201230DF10F020146024800F0C9
:104D1000B0FA05B05DF804FB5002002000B585B084
:104D20008DF80F100193009201230DF10F0201463F
:104D3000024800F08AFA05B05DF804FB500200203A
:104D400070B582B000230093ADF8043030B30C4648
:104D50000546866826B306236A4643210078B04795
:104D60009DF800209DF8013043EA0223AA899B1A8E
:104D700023809DF802209DF8033043EA0223EA894C
:104D80009B1A63809DF804209DF8053043EA0223B6
:104D90002A8A9B1AA380002002B070BD0120FBE785
:104DA0000120F9E730B583B000230093ADF804305B
:104DB000F8B10C468568F5B106236A463B210078B8
:104DC000A8479DF800209DF8013043EA0223238084
:104DD0009DF802209DF8033043EA022363809DF88A
:104DE00004209DF8053043EA0223A380002003B08D
:104DF00030BD0120FBE70120F9E7000050B3407807
:104E0000FA23834007EE903AF8EE677ADFED126AF4
:104E100086EEA77AB1F9003007EE903AF8EEE77A1D
:104E2000C7EE876AC2ED006AB1F9023007EE903A28
:104E3000F8EEE77AC7EE876AC2ED016AB1F904308D
:104E400007EE903AF8EEE77AC7EE876AC2ED026A9B
:104E500000207047012070470000004708B3B1F9F7
:104E6000003007EE103AB8EEC77ADFED0F7AC7EEE2
:104E7000276AC2ED006AB1F9023007EE103AB8EEC7
:104E8000C77AC7EE276AC2ED016AB1F9043007EEAE
:104E9000103AB8EEC77AC7EE276AC2ED026A002060
:104EA00070470120704700BFBC9C024520B108B587
:104EB00003680846984708BD7047000008B50146DA
:104EC000014800F0A7FF08BD0004004008B50146F6
:104ED000014800F09DFF08BD0004004008B50146F0
:104EE000014800F093FF08BD0004004008B50146EA
:104EF000014800F089FF08BD0004004008B54FF4E8
:104F00000041024800F095FD08BD00BF00040048C4
:104F100000B1704708B54FF40041024800F090FD21
:104F200008BD00BF0004004808B528B94FF400418F
:104F3000044800F087FD08BD4FF40041014800F02F
:104F40007FFDF8E70004004808B530B94FF48071E0
:104F50004FF0904000F076FD08BD4FF480714FF0A7
:104F6000904000F06DFDF7E710B50446836801201E
:104F70009847636801209847A368002098476368B2
:104F80000020984710BD10B504468368002098475C
:104F9000636801209847A3680120984710BD10B5A9
:104FA0000446836800209847636801209847636837
:104FB00000209847A3680120984710BD10B504460B
:104FC0008368012098476368012098476368002040
:104FD000984710BD38B50446C368002098476368F9
:104FE0000120984723699847054663680020984741
:104FF000E36801209847284638BD70B506460D463F
:1050000000240EE0B3680020984773680120984799
:105010007368002098476D00EDB2072C0AD0013468
:10502000E4B2072C0AD815F0800FEBD0B36801204A
:105030009847EAE7B36801209847F0E770BDF8B5F4
:1050400006460F46C36800209847002425460DE019
:105050006400E4B2736801209847336998470443B9
:10506000E4B27368002098470135EDB2072DEFD9FF
:10507000F3680120984727B93046FFF79FFF204685
:10508000F8BD3046FFF78BFFF9E72DE9F843DDF86F
:1050900020809DF82490C8B30E4615461F4604464E
:1050A0004368ABB38368ABB3FFF75EFF710001F0F9
:1050B000FE012046FFF7A1FF2046FFF78BFF0128E6
:1050C0002BD00026BE420BD229782046FFF795FF51
:1050D0002046FFF77FFF012821D001350136F1E797
:1050E0000025A9450DD998F800102046FFF785FF47
:1050F0002046FFF76FFF012813D008F101080135A2
:10510000EFE72046FFF73FFF002004E0012002E028
:10511000012000E00120BDE8F8830220FBE7022027
:10512000F9E70220F7E72DE9F047089E9DF824A053
:10513000002857D0884615461F4604464368002B72
:1051400052D08368002B51D0C368002B50D0036924
:10515000002B4FD0F7B1FFF707FF4FEA480101F0EE
:10516000FE012046FFF749FF2046FFF733FF0128E5
:1051700042D04FF000094F450CD929782046FFF75F
:105180003CFF2046FFF726FF012837D0013509F103
:105190000109F0E72046FFF7E7FE4FEA480141F03A
:1051A0000101C9B22046FFF728FF2046FFF712FF92
:1051B000012825D0002506E001212046FFF73FFF0A
:1051C00006F8010B01350AF1FF33AB42F4D8002198
:1051D0002046FFF734FF30702046FFF7D4FE002052
:1051E000BDE8F0870120FBE70120F9E70120F7E7A0
:1051F0000120F5E70120F3E70220F1E70220EFE7C5
:105200000220EDE7F8B504460E461746002501E0FA
:1052100001340135B54205D221460348FFF7B0F904
:105220000028F5D03D60F8BD5C02002048B108B50B
:105230008C4611461A4643682BB1604698470020B9
:1052400008BD012070470120FAE770B110B582B0A7
:105250008C4611461A4644684CB1059B0093049B4A
:105260006046A047C0B202B010BD012070470120C7
:10527000F9E770B110B582B08C4611461A468468C1
:105280004CB1059B0093049B6046A047002002B0F0
:1052900010BD012070470120F9E7000010B582B071
:1052A0009DF8104001940093D3B20A46014602488B
:1052B000FFF739FF02B010BD3402002010B582B0F4
:1052C0009DF810400194009313460A460146024897
:1052D000FFF7DBFE02B010BD3402002070B58AB0CB
:1052E0001D23ADF818300025079542F20F7308937F
:1052F000ADF824501B4C06A9204600F007FC01A87D
:1053000000F06AFD6023ADF804300126ADF80660B8
:105310000423ADF80830ADF810500823ADF8123072
:105320004FF48073ADF81430ADF816504FF47A6531
:10533000039501A9204600F029FC039501A9204608
:1053400000F070FC039501A9204600F0BBFC03951A
:1053500001A9204600F000FD3146204600F046FD40
:105360000AB070BD0004004008B5FFF7B7FF08BDE4
:1053700030B58DB01A4B01931A4B0293002403945D
:10538000202304930594802206920794089409939D
:105390004FF440530A930B94134D01A9284600F093
:1053A0006DFB01220421284600F095FB0122022119
:1053B000284600F090FB0121284600F07FFB0B23DC
:1053C0008DF800300E238DF801308DF80240012356
:1053D0008DF80330684600F039FD0DB030BD00BFD8
:1053E000044400402C0400205800024010B5002462
:1053F00005E0044B195D0448FFF7A0F801340F2CB9
:10540000F7D910BD2C0400205C02002010B5102438
:1054100005E0044B195D0448FFF790F801341F2C98
:10542000F7D910BD2C0400205C02002070B586B0B6
:1054300002A800F09FFD4FF4E13502950024ADF87D
:105440000C40ADF80E40ADF81040ADF814400C2300
:10545000ADF812301C4E02A9304600F029FD0121A2
:10546000304600F092FD0295ADF80C40ADF80E40CC
:10547000ADF81040ADF814400423ADF81230134DD0
:1054800002A9284600F014FD012240F224412846DA
:1054900000F089FD0121284600F077FD012240211E
:1054A000284600F09BFD1C238DF804300E238DF858
:1054B00005308DF8064001238DF8073001A800F073
:1054C000C5FC06B070BD00BF00380140004400407C
:1054D00008B501214FF49C0000F014F901210846A1
:1054E00000F010F901214FF4804000F019F901217A
:1054F0004FF4003000F022F90121022000F01EF9E3
:1055000008BD2DE9F0410646884600240DE027013C
:1055100006EB041505F10801F05900F0F3F9AA793A
:10552000A988F05900F090FA01344445EFD3BDE862
:10553000F081000008B503210948FFF7E2FF0221CE
:105540000848FFF7DEFF01210748FFF7DAFF0221D5
:105550000648FFF7D6FF04210548FFF7D2FF08BD34
:105560009C7200082C7300084C730008CC72000871
:10557000EC72000830B45C4B5B6803F00C03042B46
:1055800018D0082B50D013B1584B036014E003F12E
:10559000804303F504331B6B13F0007F07D0524B9D
:1055A0005B6D13F4007F02D0514B036004E04F4B5E
:1055B000036001E04D4B03604B494A68C2F302129D
:1055C0004B6813F0800301D04A4B9B5C026822FABF
:1055D00003F34360444C6168C1F30121626812F433
:1055E000806201D0434A525C23FA02F282603E4C50
:1055F0006168C1F3C121626812F4005201D03D4AD2
:10560000525CD340C36038494A68C2F3813249686A
:1056100011F0805F01D042F0040237498A5CB3FB8D
:10562000F2F3036130BC70472F494A6802F48032BC
:10563000C96A002911DB2C4B5968304C0C40C4F36B
:10564000834343EA546311F0C04F36D101F4701123
:10565000B1F5701F2FD0022130E0234CE16AE56ADA
:10566000E46A04F00704013C042C04D8DFE804F0E9
:105670000B050C070900012306E0042304E01023B6
:1056800002E0202300E0022332B1174A526812F4EC
:10569000003F0ED01A4C00E0194CC1F3072204FB66
:1056A00002F2C5F3031101FB03F3B2FBF3F3036052
:1056B00082E70E4CF1E7012100E001210B4422B901
:1056C0000F4A02FB03F3036076E7074A526812F4BD
:1056D000003F04D00A4A02FB03F303606CE7034A6D
:1056E00002FB03F3036067E70010024000127A0038
:1056F000006CDC02647300085C73000800003C600E
:1057000000093D0021B1054A5369184350617047B3
:10571000024A536923EA00005061704700100240BA
:1057200021B1054A9369184390617047024A936911
:1057300023EA0000906170470010024021B1054A41
:10574000D3691843D0617047024AD36923EA000045
:10575000D061704700100240012805D0054A536D02
:1057600023F0300353657047024A536D43F0300312
:105770005365704700100240D0B52DED028B82B00A
:105780000190514B5A68DC6A24F0074412F4803FC0
:1057900033D007EE900AF8EE677A9FED4C7A87EEE9
:1057A000878A5B6813F4003F03D0F6EE007A28EE98
:1057B000278A18EE100AFDF763FB06460F4638A34A
:1057C000D3E90023FDF732FC30B1F1EE047AB4EEF8
:1057D000E78AF1EE10FA10D433A3D3E90023304660
:1057E0003946FDF723FC70B1F1EE097AB4EEE78A91
:1057F000F1EE10FA07D544F08074334BDC6202B04E
:10580000BDEC028BD0BDDFED327AB4EEE78AF1EE6B
:1058100010FA0ADD26A3D3E9002330463946FDF706
:10582000E7FB10B144F00074E7E721A3D3E90023BC
:1058300030463946FDF7FAFB48B1F2EE097AB4EE8C
:10584000E78AF1EE10FA02D544F04074D5E7DFEDB7
:10585000217AB4EEE78AF1EE10FA0ADD16A3D3E955
:10586000002330463946FDF7C3FB10B144F0806495
:10587000C3E711A3D3E9002330463946FDF7D6FB31
:105880000028BAD00EA3D3E9002330463946FDF7ED
:10589000AFFB0028B1D044F0A064AEE7AFF30080C6
:1058A0003333333333330F40CDCCCCCCCCCC14405A
:1058B000295C8FC2F5A8204014AE47E17AD4344069
:1058C000E17A14AE47413F40001002400024744981
:1058D0000000FA4000007A41064A1368034052690A
:1058E000024202D01BB900207047002070470120FF
:1058F000704700BF00040140014B5861704700BF72
:1059000000040140CB78032B01D90023CB704B79E5
:10591000022B01D900234B710B79012B01D90023F4
:105920000B718B78013BDBB2012B01D902238B7009
:1059300000230F2B7CD830B550E0828F92B2012427
:105940009C4022EA0402828785684FEA430E4FF0AA
:10595000030C0CFA0EFC25EA0C05856082688C7835
:1059600004FA0EF422438260B0F804C01FFA8CFCE3
:105970009DB24FF0010E0EFA05FE2CEA0E0CA0F8B7
:1059800004C0828892B20C79AC40A4B222438280D7
:1059900004684FEA430E032202FA0EFC24EA0C04C8
:1059A0000460046891F803C00CFA0EFC44EA0C048D
:1059B0000460C4681FFA83FC4FEA4C0C02FA0CF234
:1059C00024EA0202C260C26891F805C00CFA0EFC1B
:1059D00042EA0C02C26001330F2B28D801229A4000
:1059E000B1F800C032EA0C04F5D191F803C00CF113
:1059F000FF3C5FFA8CFCBCF1010FC9D88C78012CFC
:105A00009BD9848FA4B201259D4024EA0504848794
:105A100084684FEA430C032505FA0CF524EA0504D3
:105A20008460848FA4B2224392B282879CE730BD07
:105A30007047038A194201D0012070470020704747
:105A4000816170470185704700B501F007039B0035
:105A500002FA03FCC908083150F821204FF00F0E5C
:105A60000EFA03F322EA030340F8213050F8212014
:105A700042EA0C0240F821205DF804FB10B40268F1
:105A800022F4FF4222F070028B680C6A23430C69F7
:105A900023434C6923438C692343CC6923434C6AD9
:105AA00023438C6A234313430360CB6843600B6832
:105AB00083604B68C3605DF8044B704721B1036895
:105AC00043F0010303607047036823F001031B04E4
:105AD0001B0C036070471AB10368194301607047DB
